{
  "contractName": "DistributorRole",
  "abi": [
    {
      "inputs": [],
      "payable": false,
      "stateMutability": "nonpayable",
      "type": "constructor",
      "signature": "constructor"
    },
    {
      "anonymous": false,
      "inputs": [
        {
          "indexed": false,
          "name": "account",
          "type": "address"
        }
      ],
      "name": "DistributorAdded",
      "type": "event",
      "signature": "0xddbf200aa634dc3fb81cfd68583dd1040d1c751d335e1d86b631bde3e977fea8"
    },
    {
      "anonymous": false,
      "inputs": [
        {
          "indexed": false,
          "name": "account",
          "type": "address"
        }
      ],
      "name": "DistributorRemoved",
      "type": "event",
      "signature": "0x126174f6cf49c81cdb4a9214c6b8f037bef55b4ec31e4fc776cea2a1c8a88d59"
    },
    {
      "constant": true,
      "inputs": [
        {
          "name": "account",
          "type": "address"
        }
      ],
      "name": "isDistributor",
      "outputs": [
        {
          "name": "",
          "type": "bool"
        }
      ],
      "payable": false,
      "stateMutability": "view",
      "type": "function",
      "signature": "0x8f0c86fa"
    },
    {
      "constant": false,
      "inputs": [
        {
          "name": "account",
          "type": "address"
        }
      ],
      "name": "addDistributor",
      "outputs": [],
      "payable": false,
      "stateMutability": "nonpayable",
      "type": "function",
      "signature": "0x7250e224"
    },
    {
      "constant": false,
      "inputs": [],
      "name": "renounceDistributor",
      "outputs": [],
      "payable": false,
      "stateMutability": "nonpayable",
      "type": "function",
      "signature": "0x644241db"
    }
  ],
  "bytecode": "0x608060405234801561001057600080fd5b506100293361002e640100000000026401000000009004565b610343565b61004f8160006100b5640100000000026104dd179091906401000000009004565b7fddbf200aa634dc3fb81cfd68583dd1040d1c751d335e1d86b631bde3e977fea881604051808273ffffffffffffffffffffffffffffffffffffffff1673ffffffffffffffffffffffffffffffffffffffff16815260200191505060405180910390a150565b600073ffffffffffffffffffffffffffffffffffffffff168173ffffffffffffffffffffffffffffffffffffffff161415151561015a576040517f08c379a00000000000000000000000000000000000000000000000000000000081526004018080602001828103825260168152602001807f456d70747920616464726573732070726f76696465640000000000000000000081525060200191505060405180910390fd5b6101738282610246640100000000026401000000009004565b1515156101e8576040517f08c379a000000000000000000000000000000000000000000000000000000000815260040180806020018281038252601d8152602001807f526f6c6520616c7265616479206861732074686973206163636f756e7400000081525060200191505060405180910390fd5b60018260000160008373ffffffffffffffffffffffffffffffffffffffff1673ffffffffffffffffffffffffffffffffffffffff16815260200190815260200160002060006101000a81548160ff0219169083151502179055505050565b60008073ffffffffffffffffffffffffffffffffffffffff168273ffffffffffffffffffffffffffffffffffffffff16141515156102ec576040517f08c379a00000000000000000000000000000000000000000000000000000000081526004018080602001828103825260168152602001807f456d70747920616464726573732070726f76696465640000000000000000000081525060200191505060405180910390fd5b8260000160008373ffffffffffffffffffffffffffffffffffffffff1673ffffffffffffffffffffffffffffffffffffffff16815260200190815260200160002060009054906101000a900460ff16905092915050565b61068b806103526000396000f300608060405260043610610057576000357c0100000000000000000000000000000000000000000000000000000000900463ffffffff168063644241db1461005c5780637250e224146100735780638f0c86fa146100b6575b600080fd5b34801561006857600080fd5b50610071610111565b005b34801561007f57600080fd5b506100b4600480360381019080803573ffffffffffffffffffffffffffffffffffffffff16906020019092919050505061011c565b005b3480156100c257600080fd5b506100f7600480360381019080803573ffffffffffffffffffffffffffffffffffffffff169060200190929190505050610128565b604051808215151515815260200191505060405180910390f35b61011a33610145565b565b610125816101bf565b50565b600061013e82600061023990919063ffffffff16565b9050919050565b61015981600061033690919063ffffffff16565b7f126174f6cf49c81cdb4a9214c6b8f037bef55b4ec31e4fc776cea2a1c8a88d5981604051808273ffffffffffffffffffffffffffffffffffffffff1673ffffffffffffffffffffffffffffffffffffffff16815260200191505060405180910390a150565b6101d38160006104dd90919063ffffffff16565b7fddbf200aa634dc3fb81cfd68583dd1040d1c751d335e1d86b631bde3e977fea881604051808273ffffffffffffffffffffffffffffffffffffffff1673ffffffffffffffffffffffffffffffffffffffff16815260200191505060405180910390a150565b60008073ffffffffffffffffffffffffffffffffffffffff168273ffffffffffffffffffffffffffffffffffffffff16141515156102df576040517f08c379a00000000000000000000000000000000000000000000000000000000081526004018080602001828103825260168152602001807f456d70747920616464726573732070726f76696465640000000000000000000081525060200191505060405180910390fd5b8260000160008373ffffffffffffffffffffffffffffffffffffffff1673ffffffffffffffffffffffffffffffffffffffff16815260200190815260200160002060009054906101000a900460ff16905092915050565b600073ffffffffffffffffffffffffffffffffffffffff168173ffffffffffffffffffffffffffffffffffffffff16141515156103db576040517f08c379a00000000000000000000000000000000000000000000000000000000081526004018080602001828103825260168152602001807f456d70747920616464726573732070726f76696465640000000000000000000081525060200191505060405180910390fd5b6103e58282610239565b151561047f576040517f08c379a00000000000000000000000000000000000000000000000000000000081526004018080602001828103825260238152602001807f4163636f756e7420646f6573206e6f742062656c6f6e6720746f20746865207281526020017f6f6c65000000000000000000000000000000000000000000000000000000000081525060400191505060405180910390fd5b60008260000160008373ffffffffffffffffffffffffffffffffffffffff1673ffffffffffffffffffffffffffffffffffffffff16815260200190815260200160002060006101000a81548160ff0219169083151502179055505050565b600073ffffffffffffffffffffffffffffffffffffffff168173ffffffffffffffffffffffffffffffffffffffff1614151515610582576040517f08c379a00000000000000000000000000000000000000000000000000000000081526004018080602001828103825260168152602001807f456d70747920616464726573732070726f76696465640000000000000000000081525060200191505060405180910390fd5b61058c8282610239565b151515610601576040517f08c379a000000000000000000000000000000000000000000000000000000000815260040180806020018281038252601d8152602001807f526f6c6520616c7265616479206861732074686973206163636f756e7400000081525060200191505060405180910390fd5b60018260000160008373ffffffffffffffffffffffffffffffffffffffff1673ffffffffffffffffffffffffffffffffffffffff16815260200190815260200160002060006101000a81548160ff02191690831515021790555050505600a165627a7a72305820f12d005a044c55cbd828d902845b0f9860f3bd27bcc23657e4b74dded5cb99d70029",
  "source": "pragma solidity ^0.4.24;\n\n// Import the library 'Roles'\nimport \"./Roles.sol\";\n\n// Define a contract 'DistributorRole' to manage this role - add, remove, check\ncontract DistributorRole {\n    using Roles for Roles.Role;\n\n    // Define 2 events, one for Adding, and other for Removing\n    event DistributorAdded(address account);\n    event DistributorRemoved(address account);\n\n    // Define a struct 'distributors' by inheriting from 'Roles' library, struct Role\n    Roles.Role private distributors;\n\n    // In the constructor make the address that deploys this contract the 1st distributor\n    constructor() public {\n        _addDistributor(msg.sender);\n    }\n\n    // Define a modifier that checks to see if msg.sender has the appropriate role\n    modifier onlyDistributor() {\n        // require(\n        //     distributors.has(msg.sender),\n        //     \"msg.sender is not a distributor\"\n        // );\n        _;\n    }\n\n    // Define a function 'isDistributor' to check this role\n    function isDistributor(address account) public view returns (bool) {\n        return distributors.has(account);\n    }\n\n    // Define a function 'addDistributor' that adds this role\n    function addDistributor(address account) public onlyDistributor {\n        _addDistributor(account);\n    }\n\n    // Define a function 'renounceDistributor' to renounce this role\n    function renounceDistributor() public {\n        _removeDistributor(msg.sender);\n    }\n\n    // Define an internal function '_addDistributor' to add this role, called by 'addDistributor'\n    function _addDistributor(address account) internal {\n        distributors.add(account);\n        emit DistributorAdded(account);\n    }\n\n    // Define an internal function '_removeDistributor' to remove this role, called by 'removeDistributor'\n    function _removeDistributor(address account) internal {\n        distributors.remove(account);\n        emit DistributorRemoved(account);\n    }\n}\n",
  "sourcePath": "/Users/williamoconnor/Projects/Udacity - Blockchain Developer/nd1309-Project-6b-Example-Template/project-6/contracts/coffeeaccesscontrol/DistributorRole.sol",
  "compiler": {
    "name": "solc",
    "version": "0.4.24+commit.e67f0147.Emscripten.clang"
  },
  "schemaVersion": "3.0.1",
  "updatedAt": "2021-08-16T11:47:59.101Z",
  "devdoc": {
    "methods": {}
  },
  "userdoc": {
    "methods": {}
  }
}