{
  "contractName": "FarmerRole",
  "abi": [
    {
      "constant": true,
      "inputs": [],
      "name": "membershipCount",
      "outputs": [
        {
          "name": "",
          "type": "uint256"
        }
      ],
      "payable": false,
      "stateMutability": "view",
      "type": "function",
      "signature": "0x39bd22ae"
    },
    {
      "inputs": [],
      "payable": false,
      "stateMutability": "nonpayable",
      "type": "constructor",
      "signature": "constructor"
    },
    {
      "anonymous": false,
      "inputs": [
        {
          "indexed": true,
          "name": "account",
          "type": "address"
        }
      ],
      "name": "FarmerAdded",
      "type": "event",
      "signature": "0x2e0ded4123377a3c2bc9a26f1717655a129e2f20752924d42e730ec89c83dbd0"
    },
    {
      "anonymous": false,
      "inputs": [
        {
          "indexed": true,
          "name": "account",
          "type": "address"
        }
      ],
      "name": "FarmerRemoved",
      "type": "event",
      "signature": "0xa5e0f060af304ab17dd418c7927e3da3ae7868189bf387aee09ab179ccc572f2"
    },
    {
      "constant": true,
      "inputs": [
        {
          "name": "account",
          "type": "address"
        }
      ],
      "name": "isFarmer",
      "outputs": [
        {
          "name": "",
          "type": "bool"
        }
      ],
      "payable": false,
      "stateMutability": "view",
      "type": "function",
      "signature": "0xb9429069"
    },
    {
      "constant": false,
      "inputs": [
        {
          "name": "account",
          "type": "address"
        }
      ],
      "name": "addFarmer",
      "outputs": [],
      "payable": false,
      "stateMutability": "nonpayable",
      "type": "function",
      "signature": "0x80c3f96d"
    },
    {
      "constant": false,
      "inputs": [],
      "name": "renounceFarmer",
      "outputs": [],
      "payable": false,
      "stateMutability": "nonpayable",
      "type": "function",
      "signature": "0x80fc0ce4"
    }
  ],
  "bytecode": "0x6080604052600060015534801561001557600080fd5b5061002e33610033640100000000026401000000009004565b610333565b6100548160006100a5640100000000026103cc179091906401000000009004565b8073ffffffffffffffffffffffffffffffffffffffff167f2e0ded4123377a3c2bc9a26f1717655a129e2f20752924d42e730ec89c83dbd060405160405180910390a2600180540160018190555050565b600073ffffffffffffffffffffffffffffffffffffffff168173ffffffffffffffffffffffffffffffffffffffff161415151561014a576040517f08c379a00000000000000000000000000000000000000000000000000000000081526004018080602001828103825260168152602001807f456d70747920616464726573732070726f76696465640000000000000000000081525060200191505060405180910390fd5b6101638282610236640100000000026401000000009004565b1515156101d8576040517f08c379a000000000000000000000000000000000000000000000000000000000815260040180806020018281038252601d8152602001807f526f6c6520616c7265616479206861732074686973206163636f756e7400000081525060200191505060405180910390fd5b60018260000160008373ffffffffffffffffffffffffffffffffffffffff1673ffffffffffffffffffffffffffffffffffffffff16815260200190815260200160002060006101000a81548160ff0219169083151502179055505050565b60008073ffffffffffffffffffffffffffffffffffffffff168273ffffffffffffffffffffffffffffffffffffffff16141515156102dc576040517f08c379a00000000000000000000000000000000000000000000000000000000081526004018080602001828103825260168152602001807f456d70747920616464726573732070726f76696465640000000000000000000081525060200191505060405180910390fd5b8260000160008373ffffffffffffffffffffffffffffffffffffffff1673ffffffffffffffffffffffffffffffffffffffff16815260200190815260200160002060009054906101000a900460ff16905092915050565b610721806103426000396000f300608060405260043610610062576000357c0100000000000000000000000000000000000000000000000000000000900463ffffffff16806339bd22ae1461006757806380c3f96d1461009257806380fc0ce4146100d5578063b9429069146100ec575b600080fd5b34801561007357600080fd5b5061007c610147565b6040518082815260200191505060405180910390f35b34801561009e57600080fd5b506100d3600480360381019080803573ffffffffffffffffffffffffffffffffffffffff16906020019092919050505061014d565b005b3480156100e157600080fd5b506100ea6101dd565b005b3480156100f857600080fd5b5061012d600480360381019080803573ffffffffffffffffffffffffffffffffffffffff1690602001909291905050506101e8565b604051808215151515815260200191505060405180910390f35b60015481565b6001151561015a336101e8565b15151415156101d1576040517f08c379a000000000000000000000000000000000000000000000000000000000815260040180806020018281038252601a8152602001807f6d73672e73656e646572206973206e6f742061206661726d657200000000000081525060200191505060405180910390fd5b6101da81610205565b50565b6101e63361026a565b565b60006101fe8260006102cf90919063ffffffff16565b9050919050565b6102198160006103cc90919063ffffffff16565b8073ffffffffffffffffffffffffffffffffffffffff167f2e0ded4123377a3c2bc9a26f1717655a129e2f20752924d42e730ec89c83dbd060405160405180910390a2600180540160018190555050565b61027e81600061054e90919063ffffffff16565b8073ffffffffffffffffffffffffffffffffffffffff167fa5e0f060af304ab17dd418c7927e3da3ae7868189bf387aee09ab179ccc572f260405160405180910390a2600180540360018190555050565b60008073ffffffffffffffffffffffffffffffffffffffff168273ffffffffffffffffffffffffffffffffffffffff1614151515610375576040517f08c379a00000000000000000000000000000000000000000000000000000000081526004018080602001828103825260168152602001807f456d70747920616464726573732070726f76696465640000000000000000000081525060200191505060405180910390fd5b8260000160008373ffffffffffffffffffffffffffffffffffffffff1673ffffffffffffffffffffffffffffffffffffffff16815260200190815260200160002060009054906101000a900460ff16905092915050565b600073ffffffffffffffffffffffffffffffffffffffff168173ffffffffffffffffffffffffffffffffffffffff1614151515610471576040517f08c379a00000000000000000000000000000000000000000000000000000000081526004018080602001828103825260168152602001807f456d70747920616464726573732070726f76696465640000000000000000000081525060200191505060405180910390fd5b61047b82826102cf565b1515156104f0576040517f08c379a000000000000000000000000000000000000000000000000000000000815260040180806020018281038252601d8152602001807f526f6c6520616c7265616479206861732074686973206163636f756e7400000081525060200191505060405180910390fd5b60018260000160008373ffffffffffffffffffffffffffffffffffffffff1673ffffffffffffffffffffffffffffffffffffffff16815260200190815260200160002060006101000a81548160ff0219169083151502179055505050565b600073ffffffffffffffffffffffffffffffffffffffff168173ffffffffffffffffffffffffffffffffffffffff16141515156105f3576040517f08c379a00000000000000000000000000000000000000000000000000000000081526004018080602001828103825260168152602001807f456d70747920616464726573732070726f76696465640000000000000000000081525060200191505060405180910390fd5b6105fd82826102cf565b1515610697576040517f08c379a00000000000000000000000000000000000000000000000000000000081526004018080602001828103825260238152602001807f4163636f756e7420646f6573206e6f742062656c6f6e6720746f20746865207281526020017f6f6c65000000000000000000000000000000000000000000000000000000000081525060400191505060405180910390fd5b60008260000160008373ffffffffffffffffffffffffffffffffffffffff1673ffffffffffffffffffffffffffffffffffffffff16815260200190815260200160002060006101000a81548160ff02191690831515021790555050505600a165627a7a7230582038c94cea96ce5fc502258afcf10843359154a273e2657de6a07d23bc67eebfca0029",
  "source": "pragma solidity ^0.4.24;\n\n// Import the library 'Roles'\nimport \"./Roles.sol\";\n\n// Define a contract 'FarmerRole' to manage this role - add, remove, check\ncontract FarmerRole {\n    using Roles for Roles.Role;\n\n    // Define 2 events, one for Adding, and other for Removing\n    event FarmerAdded(address indexed account);\n    event FarmerRemoved(address indexed account);\n\n    // Define a struct 'farmers' by inheriting from 'Roles' library, struct Role\n    Roles.Role internal farmers;\n    uint256 public membershipCount = 0;\n\n    // In the constructor make the address that deploys this contract the 1st farmer\n    constructor() public {\n        _addFarmer(msg.sender);\n    }\n\n    // Define a modifier that checks to see if msg.sender has the appropriate role\n    modifier onlyFarmer() {\n        require(isFarmer(msg.sender) == true, \"msg.sender is not a farmer\");\n        _;\n    }\n\n    modifier usingFarmerRoleData() {\n        require(membershipCount > 1, \"Hmmm, membershipCount <= 1\");\n        _;\n    }\n\n    // Define a function 'isFarmer' to check this role\n    function isFarmer(address account) public view returns (bool) {\n        return farmers.has(account);\n    }\n\n    // Define a function 'addFarmer' that adds this role\n    function addFarmer(address account) public onlyFarmer {\n        _addFarmer(account);\n    }\n\n    // Define a function 'renounceFarmer' to renounce this role\n    function renounceFarmer() public {\n        _removeFarmer(msg.sender);\n    }\n\n    // Define an internal function '_addFarmer' to add this role, called by 'addFarmer'\n    function _addFarmer(address account) internal {\n        farmers.add(account);\n        emit FarmerAdded(account);\n        membershipCount = membershipCount + 1;\n    }\n\n    // Define an internal function '_removeFarmer' to remove this role, called by 'removeFarmer'\n    function _removeFarmer(address account) internal {\n        farmers.remove(account);\n        emit FarmerRemoved(account);\n        membershipCount = membershipCount - 1;\n    }\n}\n",
  "sourcePath": "/Users/williamoconnor/Projects/Udacity - Blockchain Developer/nd1309-Project-6b-Example-Template/project-6/contracts/coffeeaccesscontrol/FarmerRole.sol",
  "compiler": {
    "name": "solc",
    "version": "0.4.24+commit.e67f0147.Emscripten.clang"
  },
  "schemaVersion": "3.0.1",
  "updatedAt": "2021-08-16T11:47:59.115Z",
  "devdoc": {
    "methods": {}
  },
  "userdoc": {
    "methods": {}
  }
}